:060000000A128A110C280F
:10000800FE00030EF1000A08F2000A128A1176288F
:100018000A128A110F2883010A128A11472803300D
:10002800831603178800890103308316031385009C
:1000380087018801831203138501870188010C1346
:10004800831603130C170B178B170F088F3960389B
:100058008F000F14831203131F083F3940389F0085
:10006800831603131F129F12C330831203139F05B5
:10007800831603139F13831203131F140D30F30009
:10008800F30B442808000A128A1113200A128A1155
:10009800831203139F18512852284C281F0CF40070
:1000A800740C0F39003A031D5A285B2860281F0872
:1000B800C33904389F006B281F0CF400740C0F39E7
:1000C800013A031D682869286B28C3309F050D3045
:1000D800F400F40B6D28831203139F144C280A12A2
:1000E8008A110C28831203130C1F7B287C28942860
:1000F8001F0CF000700C0F39003A031D8428852866
:1001080088281E08870093281F0CF000700C0F39F0
:10011800013A031D9028912893281E0888000C1383
:0E01280072088A00710E8300FE0E7E0E090022
:08400000FF3FFF3FFF3FFF3FC0
:04400E00D420FF3F7C
:00000001FF
